:020000040800F2
:100000000000022021C50008F16C0008F36C000814
:10001000F56C0008F76C0008F96C0008000000009F
:10002000000000000000000000000000714800080F
:10003000FB6C00080000000011490008FD6C00087E
:1000400075C5000875C5000875C5000875C50008A8
:1000500075C5000875C50008256F000875C500083E
:100060002F6F0008396F0008436F0008056D000806
:1000700075C50008156D000875C50008256D0008D8
:10008000356D000875C500081D6E0008456D000837
:10009000556D0008656D0008756D00084D6F00080E
:1000A00075C50008D56E000875C5000875C500083F
:1000B00075C5000875C5000875C50008056F0008FE
:1000C000156F000875C5000875C5000875C50008DE
:1000D00075C5000875C5000875C5000875C5000818
:1000E000736F000875C5000875C5000875C5000860
:1000F000ED6E0008856D000875C5000875C500081F
:1001000075C5000875C50008B96E00089D6D00082A
:10011000AD6D000875C5000875C5000875C50008F7
:1001200075C5000875C5000875C5000875C50008C7
:1001300075C50008000000000000000075C500083B
:1001400075C5000875C5000875C50008BD6D0008B7
:1001500075C5000875C5000875C5000875C5000897
:1001600075C5000875C5000875C5000875C5000887
:1001700075C5000875C500080000000000000000FB
:0801800075C5000875C50008F3
:1001900010B5054C237833B9044B13B10448AFF3C1
:1001A00000800123237010BD2807002000000000FC
:1001B000A05C020808B5034B1BB103490348AFF329
:1001C000008008BD000000002C070020A05C020891
:1001D00010F8012B11F8013B012A28BF9A42F7D0F1
:1001E000D01A7047034613F8012B002AFBD1181AC6
:1001F000013870470000000000000000000000000F
:1002000001F0FF01102A2BDB10F0070F08D010F8C7
:10021000013B013A8B422DD010F0070F42B3F6D1CB
:10022000F0B441EA012141EA014122F007047FF0E4
:1002300000070023F0E80256083C85EA010586EA3B
:10024000010685FA47F5A3FA87F586FA47F6A5FA77
:1002500087F68EB9EED1F0BC01F0FF0102F0070283
:1002600032B110F8013B013A83EA010313B1F8D12E
:100270000020704701387047002D06BF354603380F
:10028000073815F0010F07D1013015F4807F02BF48
:10029000013015F4C03F0130F0BC0138704700BF99
:1002A00081F0004102E000BF83F0004330B54FEA27
:1002B00041044FEA430594EA050F08BF90EA020F94
:1002C0001FBF54EA000C55EA020C7FEA645C7FEA27
:1002D000655C00F0E2804FEA5454D4EB5555B8BF4A
:1002E0006D420CDD2C4480EA020281EA030382EABB
:1002F000000083EA010180EA020281EA0303362D4D
:1003000088BF30BD11F0004F4FEA01314FF4801C1F
:100310004CEA113102D0404261EB410113F0004F31
:100320004FEA03334CEA133302D0524263EB4303E8
:1003300094EA050F00F0A780A4F10104D5F1200E86
:100340000DDB02FA0EFC22FA05F2801841F10001E1
:1003500003FA0EF2801843FA05F359410EE0A5F1B5
:1003600020050EF1200E012A03FA0EFC28BF4CF0E6
:10037000020C43FA05F3C01851EBE37101F000459C
:1003800007D54FF0000EDCF1000C7EEB00006EEBA9
:100390000101B1F5801F1BD3B1F5001F0CD3490833
:1003A0005FEA30004FEA3C0C04F101044FEA44528A
:1003B00012F5800F80F09A80BCF1004F08BF5FEA11
:1003C000500C50F1000041EB045141EA050130BDF1
:1003D0005FEA4C0C404141EB010111F4801FA4F194
:1003E0000104E9D191F0000F04BF01460020B1FAE9
:1003F00081F308BF2033A3F10B03B3F120020CDA21
:100400000C3208DD02F1140CC2F10C0201FA0CF0FE
:1004100021FA02F10CE002F11402D8BFC2F1200C63
:1004200001FA02F120FA0CFCDCBF41EA0C01904019
:10043000E41AA2BF01EB0451294330BD6FEA040462
:100440001F3C1CDA0C340EDC04F11404C4F120024D
:1004500020FA04F001FA02F340EA030021FA04F35F
:1004600045EA030130BDC4F10C04C4F1200220FAB6
:1004700002F001FA04F340EA0300294630BD21FAF4
:1004800004F0294630BD94F0000F83F4801306BFBA
:1004900081F480110134013D4EE77FEA645C18BFAE
:1004A0007FEA655C29D094EA050F08BF90EA020F45
:1004B00005D054EA000C04BF1946104630BD91EA3D
:1004C000030F1EBF0021002030BD5FEA545C05D140
:1004D0004000494128BF41F0004130BD14F580047F
:1004E0003CBF01F5801130BD01F0004545F0FE41F3
:1004F00041F470014FF0000030BD7FEA645C1ABF28
:10050000194610467FEA655C1CBF0B46024650EA5E
:10051000013406BF52EA033591EA030F41F400218A
:1005200030BD00BF90F0000F04BF0021704730B510
:100530004FF4806404F132044FF000054FF00001E5
:1005400050E700BF90F0000F04BF0021704730B5A6
:100550004FF4806404F1320410F0004548BF40427B
:100560004FF000013EE700BF42004FEAE2014FEAD0
:1005700031014FEA02701FBF12F07F4393F07F4FAB
:1005800081F06051704732F07F4208BF704793F0AE
:100590007F4F04BF41F40021704730B54FF46074C1
:1005A00001F0004521F000411CE700BF50EA0102C4
:1005B00008BF704730B54FF000050AE050EA01026D
:1005C00008BF704730B511F0004502D5404261EBDD
:1005D00041014FF4806404F132045FEA915C3FF41E
:1005E000D8AE4FF003025FEADC0C18BF03325FEABB
:1005F000DC0C18BF033202EBDC02C2F1200300FA6C
:1006000003FC20FA02F001FA03FE40EA0E0021FA90
:1006100002F11444BDE600BF70B54FF0FF0C4CF47E
:10062000E06C1CEA11541DBF1CEA135594EA0C0F30
:1006300095EA0C0F00F0DEF82C4481EA030621EA6B
:100640004C5123EA4C5350EA013518BF52EA0335A6
:1006500041F4801143F4801338D0A0FB02CE4FF058
:100660000005E1FB02E506F00042E0FB03E54FF088
:100670000006E1FB03569CF0000F18BF4EF0010E80
:10068000A4F1FF04B6F5007F64F5407404D25FEA7C
:100690004E0E6D4146EB060642EAC62141EA55512F
:1006A0004FEAC52040EA5E504FEACE2EB4F1FD0C71
:1006B00088BFBCF5E06F1ED8BEF1004F08BF5FEAEF
:1006C000500E50F1000041EB045170BD06F00046A1
:1006D00046EA010140EA020081EA0301B4EB5C044E
:1006E000C2BFD4EB0C0541EA045170BD41F4801146
:1006F0004FF0000E013C00F3AB8014F1360FDEBF6B
:10070000002001F0004170BDC4F10004203C35DA46
:100710000C341BDC04F11404C4F1200500FA05F3C9
:1007200020FA04F001FA05F240EA020001F000426A
:1007300021F0004110EBD37021FA04F642EB0601E0
:100740005EEA430E08BF20EAD37070BDC4F10C040A
:10075000C4F1200500FA04F320FA05F001FA04F2CE
:1007600040EA020001F0004110EBD37041F10001BA
:100770005EEA430E08BF20EAD37070BDC4F12005C5
:1007800000FA05F24EEA020E20FA04F301FA05F22D
:1007900043EA020321FA04F001F0004121FA04F2D5
:1007A00020EA020000EBD3705EEA430E08BF20EAA5
:1007B000D37070BD94F0000F0FD101F000464000DF
:1007C00041EB010111F4801F08BF013CF7D041EA61
:1007D000060195F0000F18BF704703F00046520065
:1007E00043EB030313F4801F08BF013DF7D043EA36
:1007F0000603704794EA0C0F0CEA135518BF95EAEC
:100800000C0F0CD050EA410618BF52EA4306D1D172
:1008100081EA030101F000414FF0000070BD50EA91
:10082000410606BF1046194652EA430619D094EA1B
:100830000C0F02D150EA013613D195EA0C0F05D105
:1008400052EA03361CBF104619460AD181EA030159
:1008500001F0004141F0FE4141F470014FF0000011
:1008600070BD41F0FE4141F4780170BD70B54FF0AC
:10087000FF0C4CF4E06C1CEA11541DBF1CEA13552C
:1008800094EA0C0F95EA0C0F00F0A7F8A4EB05040E
:1008900081EA030E52EA03354FEA013100F0888005
:1008A0004FEA03334FF0805545EA131343EA1263CE
:1008B0004FEA022245EA111545EA10654FEA002683
:1008C0000EF000419D4208BF964244F1FD0404F53C
:1008D000407402D25B084FEA3202B61A65EB030598
:1008E0005B084FEA32024FF480104FF4002CB6EB55
:1008F000020E75EB030E22BFB61A754640EA0C00D5
:100900005B084FEA3202B6EB020E75EB030E22BF14
:10091000B61A754640EA5C005B084FEA3202B6EB55
:10092000020E75EB030E22BFB61A754640EA9C0014
:100930005B084FEA3202B6EB020E75EB030E22BFE4
:10094000B61A754640EADC0055EA060E18D04FEAA2
:10095000051545EA16754FEA06164FEAC30343EA42
:1009600052734FEAC2025FEA1C1CC0D111F4801F0F
:100970000BD141EA00014FF000004FF0004CB6E708
:1009800011F4801F04BF01430020B4F1FD0C88BFA7
:10099000BCF5E06F3FF6AFAEB5EB030C04BFB6EBB2
:1009A000020C5FEA500C50F1000041EB045170BDA5
:1009B0000EF0004E4EEA113114EB5C04C2BFD4EBD2
:1009C0000C0541EA045170BD41F480114FF0000E56
:1009D000013C90E645EA060E8DE60CEA135594EAD2
:1009E0000C0F08BF95EA0C0F3FF43BAF94EA0C0FD5
:1009F0000AD150EA01347FF434AF95EA0C0F7FF44A
:100A000025AF104619462CE795EA0C0F06D152EA9D
:100A100003353FF4FDAE1046194622E750EA410681
:100A200018BF52EA43067FF4C5AE50EA41047FF492
:100A30000DAF52EA43057FF4EBAE12E74FF0FF3CF7
:100A400006E000BF4FF0010C02E000BF4FF0010CC8
:100A50004DF804CD4FEA410C7FEA6C5C4FEA430C41
:100A600018BF7FEA6C5C1BD001B050EA410C0CBF90
:100A700052EA430C91EA030F02BF90EA020F0020F2
:100A8000704710F1000F91EA030F58BF994208BF59
:100A900090422CBFD8176FEAE37040F00100704716
:100AA0004FEA410C7FEA6C5C02D150EA013C07D16D
:100AB0004FEA430C7FEA6C5CD6D152EA033CD3D0B8
:100AC0005DF8040B704700BF8446104662468C46B2
:100AD0001946634600E000BF01B5FFF7B7FF0028E5
:100AE00048BF10F1000F01BD4DF808EDFFF7F4FF0E
:100AF0000CBF012000205DF808FB00BF4DF808ED99
:100B0000FFF7EAFF34BF012000205DF808FB00BFBB
:100B10004DF808EDFFF7E0FF94BF012000205DF8DD
:100B200008FB00BF4DF808EDFFF7CEFF94BF012092
:100B300000205DF808FB00BF4DF808EDFFF7C4FF8B
:100B400034BF012000205DF808FB00BF4FEA410CD4
:100B50007FEA6C5C02D150EA013C0AD14FEA430CB7
:100B60007FEA6C5C02D152EA033C02D14FF00000F4
:100B700070474FF0010070474FEA410212F5001232
:100B800015D211D56FF47873B3EB625212D94FEAD4
:100B9000C12343F0004343EA505311F0004F23FABE
:100BA00002F018BF404270474FF00000704750EA13
:100BB000013005D111F0004008BF6FF000407047D0
:100BC0004FF00000704700BF4A0011D212F500122A
:100BD00011D20DD56FF47873B3EB62520ED44FEA95
:100BE000C12343F0004343EA505323FA02F0704715
:100BF0004FF00000704750EA013002D14FF0FF3053
:100C000070474FF0000070474FEA4102B2F1E043F5
:100C100024BFB3F5001CDCF1FE5C0DD901F0004CE3
:100C20004FEAC0024CEA5070B2F1004F40EB830033
:100C300008BF20F00100704711F0804F21D113F15F
:100C40003872BCBF01F00040704741F480114FEA98
:100C50005252C2F11802C2F1200C10FA0CF320FA21
:100C600002F018BF40F001004FEAC1234FEAD3233E
:100C700003FA0CFC40EA0C0023FA02F34FEA4303A8
:100C8000CCE77FEA625307D150EA01331EBF4FF031
:100C9000FE4040F44000704701F0004040F0FE404C
:100CA00040F40000704700BF7BB972B90029BEBF95
:100CB00000204FF0004106E008BF00281CBF6FF085
:100CC00000414FF0FF3001F043B9ADF1080C6DE980
:100CD00004CE002909DB002B1ADB00F04DF8DDF80B
:100CE00004E0DDE9022304B07047404261EB4101BA
:100CF000002B1BDB00F040F8DDF804E0DDE9022307
:100D000004B0404261EB4101524263EB4303704740
:100D1000524263EB430300F02FF8DDF804E0DDE915
:100D2000022304B0404261EB41017047524263EB41
:100D3000430300F021F8DDF804E0DDE9022304B00C
:100D4000524263EB4303704753B94AB9002908BFC5
:100D500000281CBF4FF0FF314FF0FF3001F0F8B812
:100D6000ADF1080C6DE904CE00F006F8DDF804E002
:100D7000DDE9022304B070472DE9F047089E0446E0
:100D80008846002B4BD18A42154667D9B2FA82F2C7
:100D90004AB1C2F1200701FA02F320FA07F79540A1
:100DA00047EA030894404FEA154E230CB8FBFEF7C0
:100DB0001FFA85FC0EFB178843EA084307FB0CF17A
:100DC000994209D9EB1807F1FF3080F01B81994255
:100DD00040F21881023F2B445B1AA4B2B3FBFEF031
:100DE0000EFB103344EA034400FB0CFCA44509D974
:100DF0002C1900F1FF3380F00781A44540F20481F3
:100E000002382C4440EA0740A4EB0C0400271EB132
:100E1000D4400023C6E900433946BDE8F0878B4241
:100E200009D9002E00F0EB800027C6E90001384602
:100E30003946BDE8F087B3FA83F7002F47D18B42DC
:100E400002D3824200F2FA80841A61EB030301208C
:100E50009846002EE0D0C6E90048DDE702B9FFDE83
:100E6000B2FA82F2002A40F08F80491B4FEA154EF9
:100E70001FFA85F80127B1FBFEFC230C0EFB1C11A9
:100E800043EA014308FB0CF1994207D9EB180CF136
:100E9000FF3002D2994200F2CD808446591AA3B2A3
:100EA000B1FBFEF00EFB101443EA044408FB00F80B
:100EB000A04507D92C1900F1FF3302D2A04500F25A
:100EC000B6801846A4EB080440EA0C409FE7C7F13F
:100ED000200CBB4022FA0CFE4EEA030E01FA07F486
:100EE00020FA0CF521FA0CF34FEA1E482543B3FB18
:100EF000F8F92C0C08FB19331FFA8EFA44EA034365
:100F000009FB0AF49C4202FA07F200FA07F10BD936
:100F10001EEB030309F1FF3080F087809C4240F212
:100F20008480A9F1020973441B1BADB2B3FBF8F036
:100F300008FB103345EA034400FB0AFAA24508D92E
:100F40001EEB040400F1FF336BD2A24569D90238CD
:100F5000744440EA0940A0FB0289A4EB0A044C4512
:100F6000C2464B4654D351D0002E69D0B1EB0A058E
:100F700064EB030404FA0CFCFD40FC404CEA05055C
:100F8000C6E90054002747E7C2F1200320FA03F71F
:100F9000954001FA02F021FA03F34FEA154E384367
:100FA000010CB3FBFEF71FFA85F80EFB173341EA7D
:100FB000034107FB08F38B4204FA02F407D96918CE
:100FC00007F1FF3C2FD28B422DD9023F2944CB1A87
:100FD00081B2B3FBFEF00EFB103341EA034100FB8C
:100FE00008F38B4207D9691800F1FF3C17D28B42F6
:100FF00015D902382944C91A40EA07473BE7374662
:10100000304609E70746E7E61846FBE64145ABD21E
:10101000B8EB020A69EB0E0201381346A4E76046FA
:10102000E9E7184695E76746D1E781467CE702384D
:101030002C4447E7ACF1020C2B442FE7384608E775
:101040003746E9E603685A004CBF43F0004323F0FB
:1010500000431844704700BF61B32DE9F84F01F118
:10106000FF3A90460646D146002707EB090404EBF9
:10107000D4746410E50071190846FFF7E3FFA24538
:10108000834605F10800304409D0FFF7DBFFC34574
:1010900000F1FF3005D8404509D2671CE5E7C3459C
:1010A00005D9A74202D004F1FF39DEE70021084646
:1010B000BDE8F88F08467047012807D0022807D0FE
:1010C000044B00280CBF18460020704702487047A8
:1010D00002487047A5170008A9170008AD170008B7
:1010E00030B5254B83B004468D1E4BB301A928466D
:1010F000AFF30080F0B101992A46FFF7ADFF01463A
:10110000C0B1FFF79FFF4B68A064012B2ED0002BCE
:1011100001F1040026DBFFF795FF0023C4E9130368
:101120000368002B12DBFFF78DFF002320611846B8
:1011300003B030BD002323610923184603B030BD3E
:101140000E490F48091AC9100191D5E7C3F303608E
:10115000FFF7B2FF002814BF0023092320611846BF
:1011600003B030BD0123C4E91303D9E70023236191
:101170000523184603B030BD000000006496020845
:10118000848F02080368DA0710B5044606D49B076B
:1011900000F1480009D500F05FFC2368590709D524
:1011A0001A070ED5DB0613D510BD00F04DFC2368E1
:1011B0005907F5D404F1D00000F056FC23681A0753
:1011C000F0D404F5A87000F057FC2368DB06EBD4DC
:1011D00004F5E870BDE8104000F092BC036803B16C
:1011E00003441846704700BF09207047704700BF8E
:1011F00070B504460D4608E02B6C63612A462369EE
:10120000214601209847082808D1296C2046FFF77D
:1012100067FF06460028EFD01FF0C4FD0728FBD16A
:101220003046296CFFF7E2FF281D00F001FC00BFEB
:101230002DE9F0470C1D054617460FCCADF5727D24
:1012400003AE0FC60FCC0FC60FCC0FC694E80F002D
:1012500002ACD5F80C80D5F8189086E80F00002372
:10126000236021E0236C6B614FF4F07221467AA871
:101270001FF00AFE2B697AAA294630469847889BB8
:10128000CDE900498246636431462B462A46012057
:10129000C0470746F8B94FF4F0727AA920461FF00C
:1012A000F3FDBAF1080F1CD1216C2846FFF718FF97
:1012B000002F08BF0926074618BF0A260028D1D0EC
:1012C000A36B46F01001CDE900492A466364012072
:1012D0002B46C04700B1092738460DF5727DBDE8A1
:1012E000F087BAF1070FF6D13846216CFFF77EFF81
:1012F00003A800F09DFB00BF406C7047F0B5CB6BBE
:101300000B640D1D0F4606460FCDF9B001AC0FC49E
:101310000FCD0FC40FCD0FC495E80F004FF0FF3570
:1013200084E80F00009506E033696A463146984725
:101330000828044608D110993046FFF7D1FE00284E
:10134000F2D0092079B0F0BD6846FFF71BFF062CEC
:10135000F7D139463046FFF74BFF00BF30B4DD6BA5
:10136000C160826119461D64002230BC60E700BF85
:1013700070B5C66843690B64BEB903690A46044682
:101380000D46014602209847072807D0082803D1B8
:1013900029462046FFF72CFF1FF004FD3046296C3C
:1013A000FFF724FF281D00F043FB0122FFF740FF59
:1013B0001FF0F8FCC2681AB1CA6B0A64002237E752
:1013C0009CE700BF704700BF836813B1014601204E
:1013D00018477047042907D8DFE801F0030806081A
:1013E00008000BB90F2A03D902207047012070476B
:1013F00000EB820218465368009A1360704700BFE2
:1014000010B584B0002303AC0A4600941946FFF7D8
:10141000E1FF039804B010BD042907D8DFE801F00C
:101420000308060808000BB90F2A03D902207047E9
:101430000120704700EB8200009A12684260184653
:10144000704700BF10B584B004AC002344F8042DED
:101450000A4600941946FFF7DFFF04B010BD00BF35
:10146000F0B5D36B1364151D07460E460FCDADF5D1
:101470000F7D17AC0FC40FCD0FC40FCD0FC495E86F
:101480000F004FF0FF3584E80F00169510E016A806
:10149000FFF7D8FF314616A8B84716AA694678B9AB
:1014A000049B08209847052804460AD0092807D03D
:1014B00026996846FFF714FE6A460C210028E6D0FC
:1014C000092416A8FFF75EFE20460DF50F7DF0BD3E
:1014D0002DE9F04F0D46C96C89B00C1D164600F081
:1014E000030B0A6806941F46002B68D0130CD9B270
:1014F00012048DF81D30022304EB810405928DF84F
:101500001C302B6DBBF1020F08BFAC6B13F0010355
:1015100046D1019300F008030093D4F80090B9F18C
:10152000000F00F0F380022F45D0B4F80090B4F81B
:1015300002800434AB6C28F0010A0F2130469A4433
:10154000FFF75EFF824534D829F0010353448342FC
:1015500094BF002001204FEA480808F0020809F073
:10156000010948EA0908B8F1010F3AD031D3B8F1BE
:10157000020F1AD1236823F0004ABBF1000F66D195
:1015800030B1009A002A6CD0BAF1000F00F09080C0
:10159000002B00DA04340AF1010304EB8304BCE7F6
:1015A000304605A900F046FB78B1092009B0BDE836
:1015B000F08F0020CFE7D4F804800834BAE7120295
:1015C00003230592ADF81C309BE7082009B0BDE865
:1015D000F08FBBF1000F02D0002840F0B48004343B
:1015E0009BE7BBF1000F18D1A8B1D4E90023991CE7
:1015F0004FEAD272D9D005F158010133049100F0BD
:10160000B580201DFFF7EAFD04AB014628461EF019
:101610008BFE002867D108347FE70D213046D5F8CE
:101620002080FFF7EDFE8045F5D1AB6A9C42F2D1F8
:101630002046FFF707FD0F2102463046FFF702FF65
:1016400030462A460021FFF7FDFE0720AEE70D21B8
:101650003046D5F82080FFF7D3FE804532D023688E
:1016600096E7BAF1000F23D005F1580304F10408FE
:10167000CDF808B0DDF800900397A3461C4602E0C1
:101680005745B94640D040460494FFF7A7FD04AB48
:101690000146002228461EF047FE09F1010708F125
:1016A00004080028ECD0D1455C46DDE902B7D6D16C
:1016B00030460D21FFF7A4FE049B2862C5E90934DA
:1016C000062073E7AB6A9C42C9D104224FF00008A0
:1016D000A318C5E90AA8C5E90C23236843454DDBD7
:1016E0000123019357E780460D213046FFF788FE1E
:1016F000B8F1020F28623ED12B46049A43F82C2FF2
:101700006B62AC62062051E75C46D1E705A9304622
:1017100000F090FA00287FF448AF019B002B3FF4C3
:1017200054AF0F213046FFF76BFE0E2102463046C4
:10173000FFF788FE30461A4A0F21FFF783FE072085
:1017400009B0BDE8F08F2046FFF77CFC0434074663
:10175000AC6328461EF046FE00283FF426AF304614
:101760003A460F21FFF76EFE07201FE730460D2196
:10177000FFF746FE2862049B6B62C2E70AF1010094
:1017800004EB8000FFF75EFC0F2102463046FFF7B6
:1017900059FE30462A464146FFF754FE072005E72A
:1017A000CD010208002393E6012391E602238FE690
:1017B0002DE9F0410546C4B0042906D8DFE801F060
:1017C0004D2B05030900032B5FD0022044B0BDE878
:1017D000F081002BF9D1102AF7D82B68DC0600F134
:1017E000F48022AC2046019200F094F9A86B019A93
:1017F0000023012606FA03F1114203D0016844F8E0
:10180000231004300133042BF4D1A863204600F0E8
:1018100077F90020DAE7012B4FEA124697B252D04F
:10182000052BD2D106EB0708B8F1200FCDD80F2E2B
:1018300040F29980B846002F40F0DB80AA6BAA6383
:101840000F2E40F2BE80B8F1000F02D002A800F0C7
:101850000BF9002044B0BDE8F081002BB5D1AC6B92
:1018600097B2281D012606FA03F1394203F101035C
:1018700002D0216801600434102B00F10400F2D181
:1018800012F40050E5D1AC63A0E7160C97B2F3193F
:10189000102B9AD82B681A075DD422AC204600F092
:1018A0000DF904EBC601AB6B3FB103EBC70218683F
:1018B00041F8040B04339342F9D12046AB6300F0A6
:1018C000DBF8002082E7F219102A3FF67EAF0F2ED8
:1018D0003FF67BAF2A68D10708D5284622F00302DD
:1018E00040F8482B019300F0B3F8019B019322AC20
:1018F000204600F0ADF8A96B019B002F00F0958009
:101900007F0004EBC6044FF00008043C01EB8702A3
:1019100051F8040B44F8040F9142F9D1B8F1000FCB
:101920000FD002AC102E314638BF102104EBC1019C
:10193000843902EBC80452F8040B41F8040F9442B6
:10194000F9D1012B7FF47BAF22AC0432AA6320468D
:1019500000F07AF87DE723F008032B6005F5A87006
:1019600000F0ACF899E7B8F1100F2A6843D9D00716
:10197000A8F110080BD5284622F0010242F002021D
:1019800040F8482B019300F06BF82A68019B51073F
:1019900025D40F2E04D822A8019300F061F8019BF2
:1019A000019302AC204600F063F8C6F11001002953
:1019B000AA6B019BB6DD22AC4F0004EBC6041146B6
:1019C000A3E722A800F048F83DE723F010032B60BE
:1019D00005F5E870019200F09DF8019A01E72846AC
:1019E00022F0040240F8D02B019300F041F8019B53
:1019F000CFE72A68CBE7D0070AD5284622F00102B4
:101A000042F0020240F8482B019300F029F8019BB4
:101A1000019322AC204600F023F8B846A96B019B45
:101A2000002F7FF46DAF0A4609E70A468DE700BF35
:101A300000F1340191E838009C46A6464CF8045D5C
:101A400090E8FF0FE54600BD90EC210B704700BF0A
:101A500080EC210B704700BF90EC200B704700BF5B
:101A600080EC200B704700BFD0EC200B704700BF0C
:101A7000C0EC200B704700BFF0EC0201F0EC02114B
:101A8000F0EC0221F0EC0231F0EC0241F0EC0251FA
:101A9000F0EC0261F0EC0271F0EC0281F0EC0291EA
:101AA000F0EC02A1F0EC02B1F0EC02C1F0EC02D1DA
:101AB000F0EC02E1F0EC02F1704700BFE0EC020153
:101AC000E0EC0211E0EC0221E0EC0231E0EC02413A
:101AD000E0EC0251E0EC0261E0EC0271E0EC02812A
:101AE000E0EC0291E0EC02A1E0EC02B1E0EC02C11A
:101AF000E0EC02D1E0EC02E1E0EC02F1704700BF63
:101B0000B0FC0181B0FC0191B0FC01A1B0FC01B1BD
:101B1000704700BFA0FC0181A0FC0191A0FC01A1C5
:101B2000A0FC01B1704700BFEC4600B52DE90050A4
:101B30002DE9FF1F4FF000032DE90C0001A9FFF76D
:101B4000DDFBDDF840E012B0704700BFEC4600B5A9
:101B50002DE900502DE9FF1F4FF000032DE90C0087
:101B600001A9FFF705FCDDF840E012B0704700BFA7
:101B7000EC4600B52DE900502DE9FF1F4FF00003A2
:101B80002DE90C0001A9FFF715FCDDF840E012B0CB
:101B9000704700BFEC4600B52DE900502DE9FF1F4E
:101BA0004FF000032DE90C0001ABFFF7D7FBDDF888
:101BB00040E012B0704700BFEC4600B52DE9005080
:101BC0002DE9FF1F4FF000032DE90C0001AAFFF7DC
:101BD00047FCDDF840E012B0704700BF027A82B9DE
:101BE000437AABB14268013B10B4437213680321DE
:101BF000141D01721A02446002605DF8044B180E55
:101C000070470368013A02721A020260180E7047A8
:101C1000B020704700B585B003AA00230092194692
:101C20000C22FFF7D7FB039805B05DF804FB00BF5B
:101C3000F0E700BF2DE9F043054685B00E464FF0B2
:101C400000083046FFF7CAFFB028044600F0B18014
:101C5000070620D500F0F003802B65D0902B36D0FE
:101C6000A02B78D0B02B47D0C02B00F08A8000F09A
:101C7000F803D02B0BD100F00702013242F400220E
:101C8000052301212846FFF793FD0028D9D009201C
:101C900005B0BDE8F0830DF10C090023194687005B
:101CA000CDF800900D222846FFF794FBFFB2039B6E
:101CB000CDF80090043760064CBFDF1BFF180023EF
:101CC00019460D2228460397FFF7A6FBB9E700F057
:101CD0000D030D2BDBD003AF002300F00F021946DC
:101CE00000972846FFF776FB0023009719460D2240
:101CF0002846FFF791FBA4E7B1285FD0B22800F097
:101D0000CC80B3287ED000F0FC03B42BBFD000F011
:101D100007020132012342F4002219462846FFF748
:101D200047FD00288DD0B2E73046FFF757FF240269
:101D30000443B4F5004FAAD024010023A2B21946EF
:101D40002846FFF735FD0028A1D114F4004F18BF35
:101D50004FF0010875E7C24302F007034FF47F62BA
:101D60001A41010702F47F624FF0000348BF42F4BA
:101D7000804219462846FFF71BFD00283FF461AF5B
:101D800085E7C62851D0C7285AD000F0F803C02BE9
:101D900069D0C82875D0C9287FF479AF3046FFF7DD
:101DA0001DFF020300F00F0002F470220130024315
:101DB00066E7B8F1000F14D0002069E73046FFF75E
:101DC0000DFF00283FF463AF10F0F0037FF45FAF26
:101DD000024619462846FFF7EBFC00283FF431AFD6
:101DE00055E703AC43460E22414600942846FFF7D0
:101DF000F1FA0094284643460F224146FFF70CFBB8
:101E0000404645E73046FFF7E9FE010300F00F00CA
:101E100001F47021421C01230A4328461946FFF7AA
:101E2000C7FC00283FF40DAF31E73046FFF7D6FE80
:101E3000010300F00F0001F47021421C0323EBE7C3
:101E40003046FFF7CBFE024600283FF420AF10F0EB
:101E5000F0037FF41CAF04212846FFF7A9FC0028FB
:101E60003FF4EFAE13E700F00F020132032342F418
:101E7000202219462846FFF79BFC00283FF4E1AEDC
:101E800005E73046FFF7AAFE00F0F00200F00F036E
:101E90001032013343EA0232F2E600230DF10C095D
:101EA0000D221946CDF800902846FFF793FA3046E8
:101EB000FFF794FE02064FF002070CD5039B00F0DB
:101EC0007F00B840034430460393FFF787FE0306C4
:101ED00007F10707F2D4039BCDF8009000F07F04D0
:101EE00003F50172BC400023144419460D22284614
:101EF0000394FFF791FAA4E610B5C36C84B05A6856
:101F000003208DF80C00DC798DF80D4012020833A7
:101F1000084601A901920293FFF78CFE04B010BDA0
:101F200008B5FFF785FE806C08BD00BF08B5FFF758
:101F30007FFEC06CC37900EB8300083008BD00BF92
:101F400008B51EF02FFF00BF08B5FFF7F9FF00BF6F
:101F5000704700BFF1EE103A43F08073E1EE103AA3
:101F6000704700BF074AD36823F4E0631B041B0CCF
:101F7000000200F4E060184340F0BF6040F400301D
:101F8000D060704700ED00E030B4174BDB68C3F35E
:101F90000223C3F10704042C28BF04241D1D062DB1
:101FA00018D9033B4FF0FF3505FA04F421EA040188
:101FB000994005FA03F322EA0303194300280BDBD7
:101FC0000901C9B200F1604000F5614080F80013DA
:101FD00030BC70470023E5E700F00F000901C9B2EB
:101FE000024B1954F4E700BF00ED00E014ED00E0EF
:101FF00000F01F02400901239340024A42F82030BA
:10200000704700BF00E100E000F01F02400901231B
:1020100093402030014A42F82030704700E100E050
:102020000138B0F1807F0AD2064B5860064AF02191
:1020300082F823100020986007221A607047012060
:10204000704700BF10E000E000ED00E0042805D07C
:10205000054A136823F0040313607047024A1368AB
:1020600043F004031360704710E000E010B513461E
:102070000222C0F8F4218361C3610A46002102F004
:10208000E1FA002010BD08B513460A46002102F00F
:10209000D9FA002008BD10B513460322C0F8F42178
:1020A000C0F80831C0F80C310A46002102F0D8FA15
:1020B000002010BD08B513460A46002102F0D0FAF0
:1020C000002008BD08B50423C0F8F43100231A46E7
:1020D000194602F0B7FA002008BD08B50523C0F87C
:1020E000F43100231A46194602F0BAFA002008BD5E
:1020F00010B588B0002201462D20FFF745FF2D20A6
:10210000FFF776FF00240194144B1A6C42F480729E
:102110001A641B6C03F480730193019B02A903A84A
:1021200005F0D6FA05F0B4FA43000D48A0FB0323EE
:102130009B0C013B0B480C4A026040F2E732C26044
:1021400043600461846008F001FB10B1012008B015
:1021500010BD044808F048F9F9E700BF0038024014
:1021600083DE1B438C34002000200040002800F058
:10217000A18038B5044690F82030D3B122681368A6
:1021800023F00203136004F069FC054623685A68D3
:1021900012F0020F10D004F061FC401B0A28F5D9A0
:1021A000636A43F400336362052384F8203001201E
:1021B00038BD04F03BFFE1E71A6842F001021A6003
:1021C00004F04CFC054623685A6812F0010F0DD14B
:1021D00004F044FC401B0A28F5D9636A43F4003339
:1021E0006362052384F820300120E1E7227E012A82
:1021F0003DD01A6822F080021A60637E012B3BD02A
:102200002268136823F040031360A37E012B39D0AA
:102210002268136823F020031360E37E012B37D07C
:102220002268136843F010031360237F012B35D01D
:102230002268136823F008031360637F012B33D0F7
:102240002268136823F004031360A368E268134351
:1022500022691343626913436268013A2168134398
:10226000CB6100206062012384F82030A0E71A6867
:1022700042F080021A60C0E72268136843F040030E
:102280001360C2E72268136843F020031360C4E7B9
:102290002268136823F010031360C6E722681368EE
:1022A00043F008031360C8E72268136843F004038F
:1022B0001360CAE70120704730B490F82040E4B2C0
:1022C000012C0BD090F82040E4B2022C06D0436AD7
:1022D00043F480234362012030BC704751B9046845
:1022E000E46814F0030F07D1436A43F40013436218
:1022F0000120F1E701295DD0056801F11B042401EB
:102300002C5904F004049460002C5ED1056801F19E
:102310001B0424012C59640D1460056801F11B0491
:1023200024012D59C5F34005D560056825446D6825
:1023300005F00F051561056825446D68C5F307258F
:10234000956105682C446468240C546104680A0192
:102350001444D4F8B8411C7004681444D4F8B8414B
:10236000240A5C7004681444D4F8B841240C9C70AE
:1023700004681444D4F8B841240EDC700468144492
:10238000D4F8BC411C7104681444D4F8BC41240A3C
:102390005C7104681444D4F8BC41240C9C7104683A
:1023A0002244D2F8BC21120EDA71B1B101291BD03E
:1023B000002091E70468246914F0030F9CD1436A5C
:1023C00043F400134362012086E7056801F11B0412
:1023D00024012C59E40854609FE70268D36843F055
:1023E0002003D360002077E70268136943F02003DD
:1023F0001361002070E72DE9F84F054603685C691A
:102400005F689E68D3F80C90D3F81080D3F818A0BA
:1024100014F0010F5AD016F0010F17D001229A6064
:1024200016F0020F08D116F0040F30D116F0080F85
:1024300007D04FF4805B0BE01CF0ECFF4FF0000B7B
:1024400006E01CF0F6FF4FF0000B01E04FF0000B30
:1024500016F4807F0BD02B684FF480729A6016F4CC
:10246000007F17D116F4806F18D04BF4005B16F480
:10247000803F2DD02B684FF480329A6016F4003FD5
:1024800016D116F4802F17D04BF4004B20E04FF4F8
:10249000006BDDE728461CF0C2FFE8E716F4006F8A
:1024A00002D04BF4804BE2E728461CF0C7FFDEE782
:1024B00028461CF0B9FF0BE016F4002F02D04BF4B5
:1024C000803B05E028461CF0BEFF01E04FF0000B0A
:1024D00014F0080F07D019F0100F04D04BF4007B54
:1024E0002B681022DA6014F0040F02D019F0080FE4
:1024F00060D114F0020F04D02B68DB6813F0030FD7
:102500005FD114F0400F07D018F0100F04D04BF437
:10251000806B2B6810221A6114F0200F02D018F083
:10252000080F52D114F0100F04D02B681B6913F060
:10253000030F51D114F4003F02D017F0100F4FD108
:1025400014F4803F02D017F0080F50D114F4004F5C
:1025500067D017F0040F61D014F4807F04D01AF014
:10256000010F01D04BF0010B14F4007F04D01AF0DE
:10257000020F01D04BF0020B14F4806F04D01AF05C
:10258000040F01D04BF0040B14F4006F46D01AF086
:10259000700A43D0BAF1300F48D02FD9BAF1500F9A
:1025A00047D0BAF1600F47D0BAF1400F31D14BF0AC
:1025B000400B2EE02B680822DA6028461CF071FFE1
:1025C00097E728461CF044FF9BE72B6808221A6116
:1025D00028461CF076FFA5E728461CF06AFFA9E70D
:1025E0002B6810225A6028461CF073FFA8E72B685E
:1025F00008225A6028461CF074FFA7E7BAF1100FB2
:1026000005D0BAF1200F04D14BF0100B01E04BF0D4
:10261000080B2A68936923F0700393612B680422E6
:102620005A60BBF1000F0AD1BDE8F88F4BF0200BC8
:10263000EFE74BF0800BECE74BF4807BE9E76B6A4C
:1026400043EA0B036B6228461CF053FFECE784B0AF
:1026500010B5044603A880E80E00089B012B20D18A
:10266000A36B23F48033A363E36823F4840323F090
:102670004003E360E36823F44013E3600F9B012B06
:102680000AD0204600F006FD069B012B14D0002046
:10269000BDE8104004B07047E36843F48013E36082
:1026A000EFE7E36843F04003E360204600F0F2FC0C
:1026B0004FF48033A363E7E7A36843F00603A36006
:1026C000A36843F02003A360E1E7836843F00103BC
:1026D000836000207047836823F00103836000203B
:1026E000704708B5C36823F0C043C360012909D00F
:1026F00019B9C36843F08043C360322004F0B4F9D1
:10270000002008BDC36843F00053C360F5E7000034
:1027100084B0F8B5044607A880E80E00119FBFB941
:10272000A36B43F40013A36325460023C4F8003EC3
:1027300004F50066D4F80038C4F800380C9B012B6F
:1027400010D1099B4BB90021204600F0AFF80DE0F5
:10275000A36B43F40023A363E6E70121204600F0C6
:10276000A5F803E00321204600F0A0F81021204640
:1027700000F076F8204600F087F80023336173619B
:102780004FF0FF32B261F36108E04FF09040C2F8C1
:10279000000900220A61FF228A60013307999942E9
:1027A0000BD905EB431202F51061D2F8000900289D
:1027B000EBDB0020C2F80009EBE7002308E04FF054
:1027C000904CC2F800CB00220261FF2282600133EC
:1027D00099420DD905EB431202F53060D2F800CBD7
:1027E000BCF1000FEBDB4FF0000CC2F800CBEAE7C6
:1027F000336923F4807333610A9B012B1AD00022C2
:10280000A2616FF0804262611BB9A36943F01003BB
:10281000A361A269104B1343A3610D9B1BB1A36974
:1028200043F00803A361012F0ED00020BDE8F8405B
:1028300004B07047094A3263326B42F4803242F08E
:1028400003023263326BDAE7A36943F0804343F05B
:102850000403A361E9E700BF00383C800001800069
:10286000890141F02001016100230133054A9342AF
:1028700005D8026912F0200FF7D10020704703201D
:10288000704700BF400D0300102303610023013394
:10289000054A934205D8026912F0100FF7D10020C3
:1028A00070470320704700BF400D0300D0F8003888
:1028B0001943C0F8001800207047D0F8083800F518
:1028C000006013F0060F10D0836803F00603022B9C
:1028D0000DD0836803F00603062B0AD0836803F04B
:1028E0000603042B07D00020704700207047032008
:1028F0007047032070470220704730B44B78012B9B
:1029000022D0D0F81C380D780122AA4043EA0243B5
:10291000C0F81C380B7800EB4310D0F8003B13F4E0
:10292000004F0ED1D0F8003B8A68C2F30A02C97882
:1029300042EA8142134343F0805343F40043C0F81A
:10294000003B002030BC7047D0F81C280D78AB400D
:102950009BB21343C0F81C380C7800EB4410D0F83D
:10296000003913F4004FECD1D0F800398A68C2F373
:102970000A02C97842EA814242EA8452134343F090
:10298000805343F40043C0F80039DAE738B54B7898
:10299000012B36D00B78044600EB4313D3F8002B01
:1029A00022F40042C3F8002B0B7800EB43134FF0E6
:1029B0000062C3F8002B0B7800EB43134FF080420A
:1029C000C3F8002B002201322B4B9A4252D80B78CD
:1029D00004EB431303F530639B6813F0100FF2D13F
:1029E000D0F8043843F48063C0F80438D0F81C38B9
:1029F000097801228A4023EA0243C0F81C380020EB
:102A000038BD0B78044600EB4313D3F8002922F4B9
:102A10000042C3F800290B7800EB43134FF000622B
:102A2000C3F800290B7800EB43134FF08042C3F842
:102A3000002900220132104B9A4219D80B7804EB7E
:102A4000431303F510639B6813F0804FF2D10D46DA
:102A500004461021FFF704FFD4F81C28297801232D
:102A60008B409BB222EA0303C4F81C380020C7E75E
:102A70000320C5E70320C3E7400D030070B582B013
:102A80004B78012B3ED00B7800EB4313D3F8104B5F
:102A9000E40CE404C3F8104B0B7800EB4313D3F8B9
:102AA000104B24F0FF5424F4C014C3F8104B4B69AE
:102AB000002B40F0D4800B7800EB4313D3F8104B7D
:102AC0008D68C5F312052C43C3F8104B0B7800EB4F
:102AD0004313D3F8104B44F40024C3F8104B012ADD
:102AE00000F0DC80CB78012B00F0DF800B7800EB6E
:102AF0004310D0F8003B43F00443C0F8003B0020F3
:102B000002B070BD4B696BBB0B7800EB4313D3F87D
:102B1000104924F0FF5424F4C014C3F810490B7872
:102B200000EB4313D3F8104944F40024C3F81049D0
:102B30000B7800EB4313D3F81049E40CE404C3F81A
:102B40001049012A54D0CB78012B57D04B69002B68
:102B500054D0D0F834380E780124B4402343C0F860
:102B600034384BE00B7800EB4313D3F81049E40CF6
:102B7000E404C3F810490B7800EB4313D3F8104971
:102B800024F0FF5424F4C014C3F810490C7800EB6F
:102B90004414D4F810594B698E683344013BB3FB9D
:102BA000F6F34E4E06EAC3432B43C4F810390B78B4
:102BB00000EB4313D3F810494D69C5F312052C43BC
:102BC000C3F81049CB78012BBBD10B7800EB431332
:102BD000D3F8104924F0C044C3F810490B7800EB37
:102BE0004313D3F8104944F00054C3F81049A8E740
:102BF0000B7800EB43130C69C3F81449CB78012B15
:102C000014D00B7800EB4313D3F8004944F004448C
:102C1000C3F80049CB78012B7FF471AF14468B8A3F
:102C20000A78C968009400F00BF968E7D0F8083812
:102C300013F4807F09D10B7800EB4313D3F80049DC
:102C400044F00054C3F80049DBE70B7800EB431372
:102C5000D3F8004944F08054C3F80049D1E78C68A8
:102C60002344013BB3FBF4F30C7800EB4414D4F899
:102C7000105B1A4E06EAC3463543C4F8105B0C7865
:102C800000EB4414D4F8106B8D689BB205FB03F580
:102C9000C5F312053543C4F8105B20E7CA680B780A
:102CA00000EB4313C3F8142B1CE7D0F8083813F4D7
:102CB000807F09D10B7800EB4313D3F8002B42F04F
:102CC0000052C3F8002B11E70B7800EB4313D3F845
:102CD000002B42F08052C3F8002B07E70000F81FDA
:102CE00030B44B78012B39D00B7800EB4313D3F879
:102CF000104BE40CE404C3F8104B0B7800EB4313C7
:102D0000D3F8104B24F0FF5424F4C014C3F8104B34
:102D10004B690BB18B684B610B7800EB4313D3F815
:102D2000104B44F40024C3F8104B0B7800EB431312
:102D3000D3F8104B8D68C5F312052C43C3F8104B24
:102D4000012A76D00B7800EB4310D0F8003B43F01B
:102D50000443C0F8003B002030BC70474B699BBB6C
:102D60000B7800EB4313D3F8104924F0FF5424F4FC
:102D7000C014C3F810490B7800EB4313D3F8104983
:102D800044F40024C3F810490B7800EB4313D3F844
:102D90001049E40CE404C3F810490B7800EB43132A
:102DA000D3F8004944F00444C3F80049012A39D05B
:102DB0004B69002BCFD0D0F83438097801228A40F3
:102DC0001343C0F83438C6E70B7800EB4313D3F84D
:102DD0001049E40CE404C3F810490B7800EB4313EA
:102DE000D3F8104924F0FF5424F4C014C3F8104958
:102DF0004C698B689C4200D94B610B7800EB431304
:102E0000D3F8104944F40024C3F810490B7800EBC0
:102E10004313D3F810494D69C5F312052C43C3F889
:102E20001049BAE70B7800EB43100B69C0F814396E
:102E300091E7CA680B7800EB4313C3F8142B81E7C2
:102E400070B49DF80C4064B903339D0807E000EBB3
:102E5000023303F5805351F8046B1E600134AC4219
:102E6000F5D3002070BC70470332920800239342D0
:102E70000CD210B400F58054246841F8044B01339F
:102E80009342F7D308465DF8044B704708467047F5
:102E90004B78012B17D00B7800EB4313D3F8002BA2
:102EA000002A05DBD3F8002B22F08042C3F8002B68
:102EB0000B7800EB4310D0F8003B43F40013C0F84C
:102EC000003B002070470B7800EB4313D3F8002938
:102ED000002A05DBD3F8002922F08042C3F800293C
:102EE0000B7800EB4310D0F8003943F40013C0F81E
:102EF0000039E6E74B78012B0FD00B7800EB43133A
:102F0000D3F8002B22F40012C3F8002BCB78023B3D
:102F1000DBB2012B19D9002070470B7800EB43136B
:102F2000D3F8002922F40012C3F80029CB78023B21
:102F3000DBB2012BEFD80B7800EB4310D0F800394F
:102F400043F08053C0F80039E5E70B7800EB4310FD
:102F5000D0F8003B43F08053C0F8003BDBE7D0F8EB
:102F6000003823F4FE63C0F80038D0F800380901B7
:102F700001F4FE610B43C0F800380020704708B52B
:102F8000D0F8043823F00203C0F80438032003F01B
:102F90006BFD002008BD08B5D0F8043843F00203EB
:102FA000C0F80438032003F05FFD002008BD42692B
:102FB000806910407047D0F8183800F50060C0698B
:102FC0001840000C7047D0F8183800F50060C06950
:102FD000184080B2704700EB4111D1F8082B00F582
:102FE000006040691040704710B4D0F81048D0F825
:102FF0003438CB40DB01DBB2234300EB411000F55A
:103000001060806818405DF8044B7047406900F01C
:1030100001007047D0F8003923F4FF6323F0070361
:10302000C0F8003900F500639A6802F00602042A2D
:1030300005D05A6842F480725A6000207047D0F878
:10304000002942F00302C0F80029F2E710B400247E
:10305000C0F8104BD0F8104B44F40024C0F8104BCB
:10306000D0F8104B44F01804C0F8104BD0F8104BB7
:1030700044F0C044C0F8104B012903D000205DF893
:10308000044B7047C0F8142B4FF08023C0F8003B6E
:10309000F4E70000002301330C4A934211D802697F
:1030A000002AF8DA036943F00103036100230133C6
:1030B000064A934207D8026912F0010FF7D10020A7
:1030C0007047032070470320704700BF400D030086
:1030D00000B589B070230193012302930023039369
:1030E00004930593069307930C2201A907F0AEFC05
:1030F00009B05DF804FB000000B58DB01748184B0F
:1031000003600023436083604FF6FF72C260036177
:10311000032203920493012105910693042207924E
:10312000089309910A930B9203A907F073FB50B916
:1031300000230193029301A9084800F09AFB38B9D3
:103140000DB05DF804FBEA21064801F037F8EFE71F
:10315000F121044801F032F8F2E700BF7C3500208D
:1031600000040040785D020800B58DB01848194B86
:1031700003600023436083604FF6FF72C260036107
:1031800003220392049301210591069304220792DE
:10319000089309910A930B9203A907F03BFB50B9DE
:1031A00000230193029301A9094800F062FB40B992
:1031B0000DB05DF804FB40F20B11074800F0FEFF74
:1031C000EEE74FF48971044800F0F8FFF0E700BF24
:1031D0000435002000080040785D020800B587B083
:1031E0002148224B03600023436083604FF0FF328D
:1031F000C260036107F0F5FAF0B900230493059368
:1032000004A9194800F035FBE0B90A230093012313
:103210000193002302930F23039308226946124867
:1032200007F082FBA0B90C2269460F4807F07CFB2F
:10323000A0B907B05DF804FB40F223110C4800F080
:10324000BDFFDAE74FF49571094800F0B7FFDCE7FE
:1032500040F23311064800F0B1FFE4E74FF49C71EF
:10326000034800F0ABFFE4E740350020000C0040CD
:10327000785D020808B50A480A4B036000234360E2
:10328000836042F60312C260036107F05FFA00B97F
:1032900008BD40F28511044800F090FFF8E700BF38
:1032A000B8350020001C0040785D020800B583B0EE
:1032B0000368184A934205D0174A934216D003B0C8
:1032C0005DF804FB00210091144B5A6C42F001029E
:1032D0005A645B6C03F001030093009B0A461920BB
:1032E000FEF752FE1920FEF783FEE8E70021019168
:1032F0000A4B1A6C42F080021A641B6C03F08003C4
:103300000193019B0A462C20FEF73EFE2C20FEF77F
:103310006FFED4E700000140001C0040003802406E
:1033200010B582B00368B3F1804F04D0174A9342BE
:103330000ED002B010BD00230093154B1A6C42F062
:1033400001021A641B6C03F001030093009BF0E779
:10335000002401940E4B5A6C42F002025A645B6CDA
:1033600003F002030193019B224621462C20FEF725
:103370000BFE2C20FEF73CFE224621462D20FEF7B8
:1033800003FE2D20FEF734FED3E700BF000401400A
:103390000038024000B589B003681D4A934205D049
:1033A0001C4A93421BD009B05DF804FB0023019333
:1033B00002F50D32116C41F002011164126C02F041
:1033C00002020192019A3022039202220492059392
:1033D0000693079203A9104807F004FFE3E70023D0
:1033E000029302F50C32116C41F004011164126C6D
:1033F00002F004020292029AC02203920222049274
:1034000005930693079203A9034807F0EBFECAE76A
:103410000004004000080040000402400268144B11
:103420009A4200D0704710B586B00024009403F58E
:103430000B331A6C42F008021A641B6C03F0080389
:103440000093009B0C2301930223029303940494A2
:10345000059301A9074807F0C5FE22460521322041
:10346000FEF792FD3220FEF7C3FD06B010BD00BF8F
:10347000000C00400000024070B586B003682B4A83
:10348000934207D0B3F1804F1ED0294A93422AD0ED
:1034900006B070BD4FF460430193022602960024EB
:1034A000039404940125059501A9224807F09AFE8A
:1034B0004FF4E0630193029603940494059501A9E7
:1034C0001D4807F08FFEE3E74FF4406301930223AA
:1034D00002930023039304930123059301A9154844
:1034E00007F080FED4E78023019302260296002491
:1034F000039404940325059501A90F4807F072FE73
:103500000195029603940494059501A9094807F0D2
:1035100069FE4FF4E07301930296039404940595B9
:1035200001A9064807F05EFEB2E700BF00000140B7
:103530000004014000040240000002400008024074
:1035400000B595B05048514B0360002343606022A2
:10355000826040F6AC52C26003610223436107F00F
:10356000F5F800285ED114A94FF4805341F8103DBE
:10357000454806F046FF002859D1434807F018F99E
:10358000002859D1404807F0FAF8002859D12023E3
:103590000E9300230F930EA93B4800F06AF9002810
:1035A00054D1702307930022089209920A920B9239
:1035B0000C920D9207A9344807F077FA00284AD1F7
:1035C000042207A9304807F070FA002848D10822E1
:1035D00007A92D4807F069FA002846D114A900234D
:1035E00041F8343D0C22284807F030FA002841D138
:1035F0004FF4006300934FF4806301930023029320
:103600001422039204934FF40052059206936946E4
:103610001D4800F057F990BB1B48FFF72DFF15B070
:103620005DF804FB65211A4800F0C8FD9BE76B219B
:10363000174800F0C3FDA0E77021154800F0BEFD5B
:10364000A0E77521124800F0B9FDA0E77C211048E1
:1036500000F0B4FDA5E788210D4800F0AFFDAFE70D
:103660008D210B4800F0AAFDB1E79221084800F037
:10367000A5FDB3E79821064800F0A0FDB8E7A42116
:10368000034800F09BFDC7E7F4350020000001402F
:10369000785D020800B58BB024484FF0804303608A
:1036A00000234360602282604FF48052C260036155
:1036B00007F07EF828BB00230893099308A91B484C
:1036C00000F0D7F810BB702301930023029302226D
:1036D00003920593082201A9144807F0E6F9D0B92E
:1036E00041F201030293002303930C2201A90F4826
:1036F00007F0DBF9A0B90D48FFF7BEFE0BB05DF88F
:1037000004FBB7210A4800F059FDD4E7BE21084860
:1037100000F054FDD7E7C721054800F04FFDDFE773
:10372000CE21034800F04AFDE5E700BF3036002017
:10373000785D020800B591B03A483B4B0360002326
:1037400043606022826040F6AC52C2600361022393
:10375000436107F02DF800283FD120230E9300236A
:103760000F930EA92F4800F084F800283BD1702356
:1037700007930022089209920A920B920C920D92E2
:1037800007A9284807F091F9002832D1042207A997
:10379000244807F08AF9002831D1082207A92148D6
:1037A00007F083F988BB4FF4006300934FF4806304
:1037B0000193002302931422039204934FF40052C6
:1037C000059206936946174800F07CF818BB154827
:1037D000FFF752FE11B05DF804FB40F24B111348A5
:1037E00000F0ECFCB9E74FF4A971104800F0E6FCDA
:1037F000BDE74FF4AF710D4800F0E0FCC6E740F2C2
:1038000063110A4800F0DAFCC7E74FF4B4710748C7
:1038100000F0D4FCC7E74FF4BA71044800F0CEFCC6
:10382000D5E700BFC834002000040140785D0208DD
:1038300010B4042303FA01F4036A23EA04030362C5
:10384000036A8A40134303625DF8044B704710B566
:10385000044604220068FFF7EBFF2268536C43F430
:10386000004353642268136843F00103136000208F
:1038700010BD90F83830012B22D030B4012280F8EE
:103880003820022380F839300468636823F070031D
:103890006360046863680D682B4363600468A36811
:1038A00023F08003A3600468A36849680B43A36006
:1038B00080F83920002380F83830184630BC704733
:1038C0000220704790F83830012B25D0012380F872
:1038D0003830CB6823F440738A68134323F4806341
:1038E0004A68134323F400630A68134323F48053A4
:1038F0000A69134323F400534A69134323F48043B2
:103900008A69134323F4004313430268536400237A
:1039100080F838301846704702207047704770476B
:1039200030B40468606A29B10D46A36A00EB134005
:1039300000230CE040EA0240A06212E003F14001E3
:1039400004EB8101496800EB11400133DBB2691ED1
:103950008B42F3DB40EA024005F13F0104EB8101B9
:103960004860002030BC70470368596200207047EF
:1039700010B582B0002400941A4B1A6B42F4001266
:103980001A631A6B02F400120092009A01941A6BE7
:1039900042F480021A631B6B03F480030193019BC2
:1039A000224605210B20FEF7EFFA0B20FEF720FB45
:1039B000224605210D20FEF7E7FA0D20FEF718FB41
:1039C000224605210F20FEF7DFFA0F20FEF710FB3D
:1039D000224605211020FEF7D7FA1020FEF708FB3B
:1039E00002B010BD00380240F8B505460F46164635
:1039F0001C463BE02CB103F031F8069BC01AA042F4
:103A000034D32A68536823F0E00353606B68B3F53E
:103A1000827F0BD0AB6AB3F5005F14D0012385F829
:103A20005130002385F85030032027E0AB68B3F510
:103A3000004F02D0B3F5806FECD12A68136823F0F1
:103A400040031360E6E72A68136823F400531B045D
:103A50001B0C13602A68136843F400531360DDE7FE
:103A60000123B34209D0B4F1FF3FC3D12B689B6857
:103A700037EA0303F4D00023F3E70020F8BD10B5C4
:103A800082B0044600920B4600228021FFF7ACFF73
:103A9000034610B9184602B010BD636D43F0200311
:103AA00063650323F6E700283BD010B504460023E6
:103AB000836290F85130002B2ED0022384F85130CD
:103AC0002268136823F0400313606368A2681343FD
:103AD000E26813432269134362691343A26902F443
:103AE00000721343E2691343226A1343A16A2268F6
:103AF0000B431360638B03F00403616A22680B437A
:103B000053602268D36923F40063D36100206065A9
:103B1000012384F8513010BD80F8503000F0DCFDF6
:103B2000CBE7012070472DE9F04184B01E4690F8A4
:103B30005030012B00F0C88004460D46904601230A
:103B400080F8503002F08AFF074694F85130DBB21B
:103B5000012B0AD00223012284F85120002284F88C
:103B60005020184604B0BDE8F081002D00F0A4807C
:103B7000B8F1000F00F0A280032384F85130002335
:103B800063652563A4F83480A4F83680A363A38713
:103B9000E38763642364A368B3F5004F1BD02368F5
:103BA0001A6812F0400F03D11A6842F040021A60FE
:103BB000E368B3F5006F14D063681BB1E38E9BB26A
:103BC000012B3ED1236815F8012B1A73E38E013BBC
:103BD0009BB2E38635E02268136843F480431360A8
:103BE000DDE763681BB1E38E9BB2012B0DD1236827
:103BF00035F8022BDA60E38E013B9BB2E38604E0EA
:103C0000002E5DD0B6F1FF3F0FD1E38E9BB27BB3A8
:103C100023689A6812F0020FF2D035F8022BDA60AE
:103C2000E38E013B9BB2E386EFE702F017FFC01B78
:103C3000B042EAD303238EE7002E43D0B6F1FF3F14
:103C40000FD1E38E9BB29BB123689A6812F0020FEA
:103C5000F2D015F8012B1A73E38E013B9BB2E38679
:103C6000EFE702F0FBFEC01BB042EAD3032372E78A
:103C700000973346012202212046FFF7B5FE08B126
:103C8000032368E73A4631462046FFF7F8FE03462D
:103C900018B12023636501235DE7A26832B903925E
:103CA0002268D168039192680392039A626D002A98
:103CB0003FF451AF01234EE701234CE701234AE7CC
:103CC000032348E7032346E702234AE72DE9F043AD
:103CD00085B099460C9D90F85030012B00F0108172
:103CE00004460F461646012380F8503002F0B6FE17
:103CF000804694F85130DBB26268012B15D0B2F5E2
:103D0000827F0AD00223012284F85120002284F805
:103D10005020184605B0BDE8F083A268002A40F0A4
:103D2000E780042B01D00223EDE7002F00F0E280B2
:103D3000002E00F0E180B9F1000F00F0DF8094F870
:103D40005130DBB2012B2BD000236365A663A4F8AE
:103D50003E90A4F83C902763A4F83690A4F83490E1
:103D60002364636423681A6812F0400F03D11A6851
:103D700042F040021A60E368B3F5006F14D0636844
:103D80001BB1E38E9BB2012B07D1236817F8012BDF
:103D90001A73E38E013B9BB2E3864FF0010961E0A9
:103DA000052384F85130CFE763681BB1E38E9BB2E3
:103DB000012B07D1236837F8022BDA60E38E013B31
:103DC0009BB2E3864FF0010913E0E38F9BB26BB126
:103DD00023689A6812F0010F08D0DB6826F8023BCE
:103DE000E38F013B9BB2E3874FF00109B5F1FF3F41
:103DF0001CD1E38E9BB21BB9E38F9BB2002B55D035
:103E0000B9F1000FE1D0E38E9BB2002BDDD0236827
:103E10009A6812F0020FD8D037F8022BDA60E38EDE
:103E2000013B9BB2E3864FF00009CEE702F016FE9D
:103E3000A0EB0800A842DCD3032364E7E38F9BB226
:103E40006BB123689A6812F0010F08D0DB683370F9
:103E5000E38F013B9BB2E38701364FF00109B5F1D7
:103E6000FF3F1BD1E38E9BB213B9E38F9BB2EBB143
:103E7000B9F1000FE2D0E38E9BB2002BDED02368B5
:103E80009A6812F0020FD9D03A781A73E38E013B88
:103E90009BB2E38601374FF00009CFE702F0DEFD69
:103EA000A0EB0800A842DDD303232CE7CDF8008067
:103EB0002B46012202212046FFF796FD08B103237D
:103EC00021E7424629462046FFF7D9FD034618B1AF
:103ED00020236365012316E7A268002A7FF413AF4D
:103EE00003922268D168039192680392039A0AE7C9
:103EF000022308E7012306E7012304E7012302E781
:103F0000022306E77047000010B584B0044602683B
:103F10005068936803F0410101290AD013F0020FA1
:103F20000ED010F0800F0BD0636C2046984704B081
:103F300010BD10F0400FF1D0236C20469847F6E7F3
:103F400013F4B07FF3D010F0200FF0D013F0400F37
:103F50000FD094F85110C9B203294AD0616D41F0D5
:103F60000401616500210091D16800919168009180
:103F7000009913F0200F0CD0616D41F001016165D3
:103F80000021029191680291116821F040011160B5
:103F9000029A13F4807F09D0636D43F008036365D0
:103FA0000023039323689B680393039B636D002B9B
:103FB000BDD02268536823F0E0035360012384F8E6
:103FC000513010F0030F1CD02268536823F0030314
:103FD0005360E36C23B10D4A1A65E06C01F0E6F81A
:103FE000A36C002BA3D0094A1A65A06C01F0DEF87F
:103FF0009DE700230193D368019393680193019B8C
:1040000095E72046FFF77EFF91E700BF11400008CB
:1040100008B5806B0023C387C386FFF773FF08BD15
:1040200008B54FF0FF31064B186804F0D7FC0028A4
:10403000F7D1044801F024FC4320FDF7D9FFF0E755
:104040007C3600208436002008B502F0ADFF0CF06D
:10405000C1FD024B186805F053FB08BD6C3600200B
:1040600030B587B001AC064D0FCD0FC42B6823606F
:10407000002101A804F014FC024B186007B030BD09
:10408000B85C02088036002070B58AB000240AA807
:1040900040F8044D012104F08DFC184B18602146B6
:1040A00004F09CFC0AA840F8084D012104F082FCB1
:1040B000134B18600AA840F80C4D012104F07AFC5B
:1040C000104B1860214604F089FC0AA840F8104DF6
:1040D000012104F06FFC0C4B1860FFF7C1FF01AD2C
:1040E0000A4E0FCE0FC533682B60214601A804F09D
:1040F000D7FB074B18600AB070BD00BF7C360020AC
:10410000703600207836002074360020CC5C02081F
:104110006C36002080B500AF194B1A68194B9A42D3
:104120001BD0174B1A68184B9A4208D1144B174AE8
:104130001A60174B83F30888164B1B689847104B7F
:104140001B682A2B0BD180BD00BF0133124A93425A
:10415000FAD90B4B0C4A1A60E3E70023F6E7084B49
:104160002A221A60BFF34F8F0C49CA6802F4E0623A
:104170000B4B1343CB60BFF34F8F00BFFDE700BF76
:104180002407002075FEADDEEFBEADDEEDFEFECAFB
:10419000000002200400FF1FFFA7610000ED00E007
:1041A0000400FA0508B50268034B9A4200D008BD26
:1041B00002F048FCFBE700BF00200040FEE70000E3
:1041C00000B595B0002101912C4B1A6C42F0805241
:1041D0001A641B6C03F080530193019B0291284BDE
:1041E0001A6842F480421A601B6803F48043029309
:1041F000029B092308934FF48033099301230D9305
:1042000002230E934FF480020F9204221092A822F0
:10421000119212930723139308A802F04FFF20BBBB
:104220000F23039302230493002305934FF4A05319
:1042300006934FF480530793052103A803F076F902
:10424000B8B903F01FFA0F4BA3FB00308009FDF74C
:10425000E7FE0420FDF7FAFE00220F214FF0FF30A9
:10426000FDF792FE15B05DF804FBFC210648FFF750
:10427000A5FF4FF485710448FFF7A0FF0038024006
:1042800000700040D34D6210A85D02082DE9184867
:104290002A4B1B682A4A12681344190C1804294B2C
:1042A0005A88002342EA000B43EA010C2649C1E97F
:1042B00000BC002411E04FEA1C3000F00F0223493B
:1042C00050180078224908554FEA0C1141EA1B7139
:1042D0004FEA0B1083468C4601340B2CEBD91C4B58
:1042E00000221A7302F094FBFFF76AFF04F004FF48
:1042F000FFF73EFB01F0D4FE01F024FFFFF720F9A9
:10430000FFF718FAFEF7F8FEFEF72EFF00F0BCF9F3
:1043100001F06CFFFFF7BEF900F0FCFBFEF75EFF5B
:10432000FEF7A8FF0B48FEF7D3FE0B48FEF7D0FEC2
:10433000FFF7AAFE04F0A5FAFEE700BF107AFF1F00
:10434000187AFF1F147AFF1FD0110020BC5D0208ED
:10435000D8110020F4350020C83400200368B3F1E0
:10436000A04F00D0704710B586B04FF4C0530193F2
:104370000223029300240394032304930A23059346
:1043800001A90E4806F02EFF0D4B5A6B42F0800239
:104390005A6300945A6C42F480425A645B6C03F492
:1043A00080430093009B224605214320FDF7ECFD4E
:1043B0004320FDF71DFE06B010BD00BF0000024007
:1043C00000380240F8B50546D0F8EC4304F5027712
:1043D00000F56F763146384602F022F894F808323C
:1043E00003F06003402B18D194F80932502B14D1FC
:1043F0000123C4F8F431B4F80E32C4F8F831D4F81B
:1044000014329B68394620469847B4F80E324BB9AF
:1044100040B92046FDF756FE04E03146D5F8EC03DE
:1044200000F053FCF8BD08B5C1EBC1029300034492
:10443000D3F80422D0F8EC0300F074FC08BD08B5F2
:10444000C1EBC102930003445A6CD0F8EC0300F0B6
:104450009EFC08BD08B5D0F8EC0300F021FD08BDB6
:1044600010B50446C3684BB10121D4F8EC0300F049
:1044700005FDD4F8EC0300F0E2FC10BD0021F4E7E8
:1044800010B50446D0F8EC0300F0FBFC2268D2F82B
:10449000003E43F00103C2F8003E236A23B1034A01
:1044A000136943F00603136110BD00BF00ED00E087
:1044B00008B5D0F8EC0300F0EDFC08BD08B5D0F865
:1044C000EC0300F0FDFC08BD08B5D0F8EC0300F0EB
:1044D000F5FC08BD08B5D0F8EC0300F0F3FC08BD0E
:1044E00008B5D0F8EC0300F0EFFC08BD03780BB181
:1044F0000020704710B503461948C0F8EC33C3F8E4
:1045000020024FF0A0430360062343600222C260F2
:104510000023036143618261C36103624362C3623A
:10452000036301F027F9A8B90D4C80212046FFF75D
:104530001BFA402200212046FFF7F2F94022012118
:104540002046FFF7EDF9402203212046FFF7E8F966
:10455000002010BD4FF4AC710248FFF72FFEE3E7D7
:1045600084360020D05D020808B5D0F8200201F0A2
:1045700071F918B1022803D0022008BD0020FCE721
:104580000120FAE710B51C4613462246D0F8200257
:1045900001F06AFC18B1022803D0022010BD0020EF
:1045A000FCE70120FAE708B5D0F8200201F090FC02
:1045B00018B1022803D0022008BD0020FCE701202A
:1045C000FAE708B5D0F8200201F00CFD18B1022876
:1045D00003D0022008BD0020FCE70120FAE708B55F
:1045E000D0F8200201F031FD18B1022803D00220DA
:1045F00008BD0020FCE70120FAE7D0F8203211F0D6
:10460000800F08D101F07F01C1EBC1018A00134482
:1046100093F8FA01704701F07F01C1EBC1018A00F4
:10462000134493F83A00704708B5D0F8200201F01F
:1046300009FC18B1022803D0022008BD0020FCE7C5
:104640000120FAE708B5D0F8200201F0A2FC18B169
:10465000022803D0022008BD0020FCE70120FAE771
:1046600008B5D0F8200201F05EFC18B1022803D092
:10467000022008BD0020FCE70120FAE708B5D0F8C9
:10468000200201F07DFC08BD08B51048104B036006
:104690004FF482734360002383604FF40062C26072
:1046A0000361012242614FF4007282611822C261EB
:1046B0000362436283620A23C362FFF7F4F900B91D
:1046C00008BD52210348FFF779FDF9E7743A00204D
:1046D000003C0040EC5D02080268364B9A4200D074
:1046E000704730B587B004460025009503F5FE33CA
:1046F0001A6C42F400421A641B6C03F400430093EA
:10470000009B4FF4E053019302230293039503238C
:1047100004930623059301A9274806F063FD274863
:10472000274B0360456040238360C5604FF480637E
:1047300003614FF4006343614FF400538361C5612B
:104740004FF480330362456200F046FC38BB1B4BDC
:10475000A3649C631B481C4B03600023436083607D
:10476000C3604FF4806202614FF4006242614FF413
:1047700000528261C3614FF480320262436200F0F2
:104780002BFC88B90F4BE3649C6300220521332086
:10479000FDF7FAFB3320FDF72BFC07B030BD7D2180
:1047A0000A48FFF70BFDD2E78F210848FFF706FD07
:1047B000E8E700BF003C004000080240CC3A00207F
:1047C000886002402C3B002010600240EC5D020833
:1047D0000B4B1B68B3F1FF3F08D04FF0500383F33E
:1047E0001188BFF36F8FBFF34F8FFEE74FF0500379
:1047F00083F31188BFF36F8FBFF34F8FFEE700BFC6
:104800000000002006480068006880F3088862B64F
:1048100061B6BFF34F8FBFF36F8F00DF00BF0000A3
:1048200008ED00E0DFF80C00016841F47001016060
:104830007047000088ED00E04FF0807340F8043CC2
:1048400021F0010140F8081C054B40F80C3C40F8F1
:10485000202C6FF0020340F8243C4438704700BF1E
:10486000D147000800000000000000000000000028
:10487000074B19680868B0E8F04F80F30988BFF368
:104880006F8F4FF0000080F311887047AFF3008006
:104890000C0800204FF0500383F31188BFF36F8F93
:1048A000BFF34F8F0A4A136801331360012B00D006
:1048B0007047084B1B6813F0FF0FF9D04FF05003FF
:1048C00083F31188BFF36F8FBFF34F8FFEE700BFF5
:1048D0000000002004ED00E0094B1B6843B94FF0D5
:1048E000500383F31188BFF36F8FBFF34F8FFEE741
:1048F000013B034A13600BB983F31188704700BF73
:104900000000002000000000000000000000000087
:10491000EFF30980BFF36F8F154B1A681EF0100F6D
:1049200008BF20ED108A20E9F04F10604DF8043DDB
:104930004FF0500080F31188BFF34F8FBFF36F8F9C
:1049400005F014F94FF0000080F3118808BC1968D5
:104950000868B0E8F04F1EF0100F08BFB0EC108AE6
:1049600080F30988BFF36F8F704700BFAFF30080FB
:104970000C08002008B54FF0500383F31188BFF3F3
:104980006F8FBFF34F8F04F07FFF18B1034B4FF0D1
:1049900080521A60002383F3118808BD04ED00E003
:1049A000064B1B68064AA2FB03239B09013B054AF1
:1049B0001360054B07221A60704700BFF401002006
:1049C000D34D621014E000E010E000E0314B1A68B3
:1049D000314B9A420DD02F4B1A68304B9A4211D16D
:1049E0004FF0500383F31188BFF36F8FBFF34F8FE6
:1049F000FEE74FF0500383F31188BFF36F8FBFF3CF
:104A00004F8FFEE700B583B0254B1A78D2B20192E2
:104A1000FF221A701B78DBB28DF803309DF803304B
:104A200003F050031F4A13701F4B07221A609DF8B2
:104A3000033013F0800F0AD01B4A1368013B136048
:104A40009DF803305B00DBB28DF80330EFE7164AC8
:104A500013681B0203F4E0631360019BDBB2104A8E
:104A60001370124B1A6842F470021A601A6842F00E
:104A700070421A60FFF794FF0D4B00221A60FFF797
:104A8000D1FE0C4A136843F040431360FFF7BAFEAF
:104A9000FFF79EFE00ED00E071C20F4170C20F41B2
:104AA00000E400E0440700204807002020ED00E07B
:104AB0000000002034EF00E0EFF305830F2B0FD947
:104AC000104A9B5CDBB2104A12789A4208D94FF028
:104AD000500383F31188BFF36F8FBFF34F8FFEE74F
:104AE0000A4B1B6803F4E063094A1268934208D931
:104AF0004FF0500383F31188BFF36F8FBFF34F8FD5
:104B0000FEE77047F0E300E0440700200CED00E012
:104B10004807002008B50B480B4B03604FF4E13306
:104B2000436000238360C36003610C2242618361A0
:104B3000C36102F0D1FF00B908BD4E210348FFF761
:104B40003DFBF9E7EC3B0020004C0040005E020812
:104B500002683B4B9A4200D070472DE9F04387B082
:104B600004460025009503F5F6331A6C42F4002242
:104B70001A641B6C03F400230093009B0123019330
:104B80000226029603964FF00309CDF810904FF0DD
:104B90000808CDF814802B4F01A9384606F022FBF7
:104BA000019602960395CDF81090CDF8148001A9D6
:104BB000384606F017FB2448244B03604FF000638F
:104BC00043608560C5604FF4806303614561856122
:104BD0004FF48073C3610562456200F0FDF928BBA4
:104BE000194B63639C631A481A4B03604FF00063D0
:104BF0004360402383600023C3604FF480620261FE
:104C000043618361C3610362436200F0E5F990B9D7
:104C10000F4B23639C63002205213420FDF7B4F978
:104C20003420FDF7E5F907B0BDE8F0837F210A489D
:104C3000FFF7C4FAD4E791210748FFF7BFFAE7E787
:104C4000004C0040000002408C3B002040600240CD
:104C50002C3C002070600240005E020898B108B54C
:104C60000346D0F8140210B10020C3F8140209B1B1
:104C7000C3F810121846012380F8FC310270FFF7C8
:104C800035FC002008BD0220704719B1C0F814128D
:104C9000002070470220704708B5FFF765FC002030
:104CA00008BD08B5D0F8143233B11B68984708B96D
:104CB000002008BD0220FCE70220FAE708B5D0F882
:104CC00014325B689847002008BD38B5044600F5EB
:104CD0000275284601F0A4FB0123C4F8F431B4F8AE
:104CE0000E32C4F8F83194F8081201F01F03012BBA
:104CF0000ED03BB1022B10D001F080012046FFF70F
:104D000060FC03E02946204601F007FD002038BD85
:104D10002946204601F025FDF8E72946204601F006
:104D20003CFDF3E710B5044621BB1346D0F8F4214F
:104D3000032A01D0002010BDD0F80C11D0F81021AA
:104D400091420CD8D0F814321B6923B190F8FC21A1
:104D5000032A00D198472046FDF7B4F9EAE7891AFB
:104D6000C0F80C118A4228BF0A4692B21946FDF7D4
:104D7000A1F9DFE70A46D0F814329B69002BD9D09D
:104D800090F8FC110329D5D111469847D2E710B508
:104D90000446002946D11346D0F8F421022A05D052
:104DA00094F80032012B39D0002010BDC169026A8D
:104DB000914219D88169B1FBF2F302FB13132BB9AD
:104DC0008A4203D8D0F8F83199421AD3D4F8143271
:104DD000DB682BB194F8FC21032A01D120469847C7
:104DE0002046FDF77AF9DBE78A1AC26192B21946CA
:104DF000FDF749F900231A4619462046FFF730FC13
:104E0000CEE700221146FDF73EF90021C4F8F81163
:104E10000B460A462046FFF723FCC1E7002384F82F
:104E20000032C1E70A46D0F814325B69002BBBD0D0
:104E300090F8FC110329B7D111469847B4E738B56B
:104E40000446402300221146FFF79CFB4025C4F88E
:104E500010512B46002280212046FFF793FB25624C
:104E6000012384F8FC31D4F818322BB1D4F8143271
:104E70005B68217920469847002038BD01740020E6
:104E8000704790F8FC3180F8FD31042380F8FC3144
:104E90000020704790F8FD3180F8FC310020704709
:104EA00008B590F8FC31032B01D0002008BDD0F8E4
:104EB0001432DB69002BF8D09847F6E700207047E2
:104EC000002070470020704708B5012280F8FC21BF
:104ED000D0F81422526801799047002008BD30B400
:104EE00005682C6824F480242C600468636083685F
:104EF000402B05D0036899600368DA6030BC7047C6
:104F000003689A600368D960F8E700000268D3B2CA
:104F1000103B0B49A1FB03131B090A49C95CC1657E
:104F2000032B06D822F47F7222F003028265806D83
:104F3000704722F47F7222F0030204328265F6E7A2
:104F4000ABAAAAAA185E0208836A826992B9012BE9
:104F50000AD01BB1022B01D000207047C36A13F0A6
:104F6000807F2CD100207047C36AB3F1C07F28D066
:104F700000207047B2F5005F05D0022B29D9032B22
:104F800015D000207047032B03D8DFE803F01C0482
:104F90001C0A00207047C36A13F0807F15D10020DF
:104FA0007047C36AB3F1C07F11D000207047C36A55
:104FB00013F0807F01D0012070470020704701204E
:104FC0007047012070470120704701207047012081
:104FD000704701207047000070B5044601F03EFDA7
:104FE000002C5BD00546002384F83430022384F87B
:104FF00035302268136823F00103136023681A68B0
:1050000012F0010F0AD001F029FD401B0528F5D947
:1050100020236365032084F8350070BD1A6820489A
:1050200010406168A2680A43E1680A4321690A43A3
:1050300061690A43A1690A43E1690A43216A0A4393
:105040000243616A04291ED01A602668756925F03A
:105050000705636A1D43042B07D1A36A1D43E36A56
:105060001BB12046FFF770FF90B975612046FFF72E
:105070004DFFE26D3F239340836000206065012374
:1050800084F83530C9E7E16A206B01430A43DBE766
:1050900040236365012084F83500BEE70120BCE7AA
:1050A0003F8010F038B5856D90F83440012C31D038
:1050B000012480F8344090F83540E4B2012C04D04B
:1050C000002380F83430022038BD0446022084F8E2
:1050D0003500002060652046FFF701FFE26D3F23A9
:1050E0009340AB602268136843F016031360226894
:1050F000536943F080035361236C23B12268136822
:1051000043F0080313602268136843F0010313603F
:105110000020D9E70220D7E770B50446866D01F07C
:105120009DFC94F83530DBB2022B06D080236365FA
:10513000002384F83430012070BD054622681368CE
:1051400023F0160313602268536923F08003536130
:10515000236CE3B12268136823F00803136022680C
:10516000136823F00103136023681B6813F0010F19
:1051700011D001F073FC401B0528F5D9202363658D
:10518000002384F83430032084F83500D4E7A36C7E
:10519000002BDFD1E3E7E26D3F239340B3600020B3
:1051A00084F83400012384F83530C5E790F83530B1
:1051B000DBB2022B03D08023436501207047052317
:1051C00080F835300268136823F001031360002073
:1051D00070470000F0B583B0044600230193724B82
:1051E0001D68724BA3FB0535AD0A876D3E68C26D25
:1051F00008239340334210D003681A6812F0040F5A
:105200000BD01A6822F004021A60C26D0823934082
:10521000BB60436D43F001034365E26D012393409E
:10522000334209D02268526912F0800F04D0BB606B
:10523000636D43F002036365E26D042393403342E0
:1052400009D02268126812F0020F04D0BB60636DAF
:1052500043F004036365E26D10239340334224D08E
:105260002268126812F0080F1FD0BB6023681A680A
:1052700012F4802F0DD01B6813F4002F04D1236C7F
:105280009BB12046984710E0A36C73B12046984725
:105290000BE01A6812F4807F03D11A6822F008022A
:1052A0001A60236C0BB120469847E26D202393408F
:1052B000334255D02268126812F0100F50D0BB60F4
:1052C00094F83530DBB2052B0ED023681A6812F43F
:1052D000802F33D01B6813F4002F2AD1636C002B6E
:1052E0003ED0204698473BE02268136823F016031F
:1052F00013602268536923F080035361236CA3B1C8
:105300002268136823F008031360E26D3F23934083
:10531000BB60002384F83430012384F83530236DDA
:10532000002B3FD0204698473CE0A36C002BE7D1F0
:10533000EBE7E36BA3B12046984711E01A6812F43B
:10534000807F09D11A6822F010021A60002384F8C5
:105350003430012384F83530E36B0BB12046984795
:10536000636DFBB1636D13F0010F17D0052384F853
:1053700035302268136823F001031360019B013369
:105380000193AB4204D823681B6813F0010FF5D1D9
:10539000002384F83430012384F83530E36C0BB1FA
:1053A0002046984703B0F0BDF4010020B5814E1BA4
:1053B000124A12F0070F1ED0D11D21F00701C1F5CE
:1053C000803313440A460E480260002141601344B2
:1053D000083B23F007030B48036059601960991AD2
:1053E00051601360084B1960084B1960084B4FF06F
:1053F00000421A6070474FF48033E4E70000001069
:105400005C0700204C0700205807002054070020AC
:105410005007002010B4134B1A6882421BD35968FE
:105420005C18844203D140680144596018464168C1
:105430004418A24213D10C4C2468A2420DD05268E9
:10544000114441601A6812680260984200D01860E6
:105450005DF8044B70471346DEE70460F5E7026031
:10546000F3E700BF5C0700204C07002070B504463E
:1054700004F0F4F93A4B1B68BBB13A4B1B681C4271
:1054800063D1ACB1083414F0070F11D024F0070435
:10549000083404F007035BB14FF0500383F3118825
:1054A000BFF36F8FBFF34F8FFEE7FFF781FFE4E796
:1054B000002C4CD02C4B1B68A3424AD32B4B1D68AD
:1054C00001E02B4615466A68A24202D22A68002AE9
:1054D000F7D1234A1268AA423DD01E6808362A68CE
:1054E0001A606B681B1B102B10D9281910F0070FBE
:1054F00008D04FF0500383F31188BFF36F8FBFF3D1
:105500004F8FFEE743606C60FFF784FF6A681649BF
:105510000B689B1A0B60164909688B4201D214492B
:105520000B60104B1B6813436B6000232B6004F06F
:1055300037FA16F0070F10D04FF0500383F311889D
:10554000BFF36F8FBFF34F8FFEE70026EFE7002614
:10555000EDE70026EBE70026E9E7304670BD00BF27
:105560004C07002050070020540700205C07002053
:105570005807002080B338B50446A0F1080550F85C
:10558000042C164909680A4208D14FF0500383F3EE
:105590001188BFF36F8FBFF34F8FFEE750F8080CF1
:1055A00040B14FF0500383F31188BFF36F8FBFF307
:1055B0004F8FFEE722EA010244F8042C04F04EF972
:1055C00054F8041C064A13680B4413602846FFF77E
:1055D00021FF04F0E5F938BD704700BF50070020F7
:1055E00054070020014B1868704700BF580700207F
:1055F0000020704721280AD100230B70C2224A7074
:1056000001228A70CB700B714B7108238B710020C3
:10561000704708B5096819F021FE002008BD000098
:1056200010B50C4C012300220B49204603F0C7FBA8
:1056300001220A49204603F0D3FB03230022084934
:10564000204603F0BCFB03220649204603F0C8FBBA
:10565000002010BDC84000200C3D00208C3C0020E4
:105660004C3D0020CC3C0020402923D8F8B5134BFA
:10567000D3F81832012A07D0032A1DD15C33104E0B
:105680001B7A23B10120F8BD44330E4EF8E71446CF
:105690000D4601462A4630461BF0F6FB074F2346CF
:1056A0002A463146384603F08AFB2146384603F045
:1056B000A5FBE8E7022070470220E4E7C84000208D
:1056C0004C3D00200C3D00202DE9F04383B00746FF
:1056D0000D46D0F80080CA00521A93000344DE6CD5
:1056E0001A6DB61A1B6C9E4200D91E4606F10309BC
:1056F0004FEA990915E006F103094FEA9909EB0011
:105700005B1B9C003C44616C3B7C0093B3B2EAB2EF
:105710004046FDF795FB636C33446364236D33446B
:105720002365414608EB451303F510639B699BB263
:105730004B4512D9EA00521B93003B441A6DDB6CB7
:105740009A420AD24BB19E1AC5EBC50293003B4464
:105750001B6C9E42CFD91E46CDE73EB90123AB401C
:10576000D1F8345825EA0305C1F83458002003B0B5
:10577000BDE8F08300286BD0F0B58BB0044603235E
:1057800080F8B933FEF7EAFD2068FCF7A4FF254650
:1057900055F8107B6E460FCD0FC60FCD0FC695E89E
:1057A000030086E80300231D0ECB3846FCF74FFFAD
:1057B00000212068FCF795FF002210E0D100891A33
:1057C0008B002344012183F8391083F83820DA87CD
:1057D000002183F83B1019645964D96401320E2A00
:1057E000ECD9002218E0D100891A8B002344002153
:1057F00083F8F91183F8F821DA8783F8FB11C3F8ED
:105800000012C3F80412C3F80C12236802F140001E
:1058100003EB8003596001320E2AE4D9254655F87E
:10582000107B6E460FCD0FC60FCD0FC695E8030057
:1058300086E80300231D0ECB3846FCF769FF0123E1
:1058400084F8B9332068FDF7A6FB00200BB0F0BD4B
:105850000120704790F8B833012B0ED010B50446E4
:10586000012380F8B8330068FDF789FB2068FCF756
:105870002CFF002084F8B80310BD02207047000000
:105880002DE9F047044605682846FDF7BFFB08B13F
:10589000BDE8F08706462068FDF789FB0028F7D0B1
:1058A0002068FDF784FB10F0020F04D022685369D2
:1058B00003F0020353612068FDF779FB10F4002F19
:1058C00075D137462068FDF772FB10F4802F40F049
:1058D000D2802068FDF76BFB0028C0F23E81206873
:1058E000FDF765FB10F4006F0AD0D5F8083813F007
:1058F000010F40F041812268536903F40063536152
:105900002068FDF754FB10F4805F40F03981206877
:10591000FDF74DFB10F4005F40F082812068FDF739
:1059200046FB10F0100F14D02268936923F0100387
:1059300093612E6A06F00F08C6F34343022B00F072
:105940000382062B00F021822268936943F0100342
:1059500093612068FDF72BFB10F0080F40F02982BF
:105960002068FDF724FB10F4801F40F02B82206894
:10597000FDF71DFB10F4001F40F02E822068FDF79C
:1059800016FB10F0804F40F031822068FDF70FFBCE
:1059900010F0040F3FF47CAF23685D6815F0040F2E
:1059A00040F02D82226853682B43536070E72068D3
:1059B000FDF701FB8046374621E0F900C91B8A004C
:1059C0002244D2F800121B69C3F31203C91AC2F8A9
:1059D0001012D2F80012D2F804320B44C2F804328A
:1059E00028E019F0080F3DD119F0100F04D005EB95
:1059F00047131022C3F8082B01374FEA5808B8F1B3
:105A0000000F3FF45FAF18F0010FF5D05FFA87FA8F
:105A100051462068FDF7DFFA814610F0010FE0D013
:105A200005EB47130122C3F8082B03F53063226905
:105A3000012AC2D051462046FEF7F5FC2369012B0E
:105A4000CFD1002FCDD1C7EBC70293002344D3F8A9
:105A50000C32002BC5D104F56F7201212068FDF7CF
:105A6000F5FABEE72046FEF7ADFC05EB471308222A
:105A7000C3F8082BB8E72068FDF7A5FA804637463B
:105A80002EE0FA00D21B93002344196C5A6C0A448E
:105A90005A6446E019F0080F04D005EB47130822BA
:105AA000C3F8082919F0100F04D005EB4713102292
:105AB000C3F8082919F0400F04D005EB4713402222
:105AC000C3F8082919F0020F04D005EB471302228E
:105AD000C3F8082919F0800F3AD101374FEA580866
